:020000020000FC
:0200000020C01E
:02001C00B3C06F
:02002000B9C065
:02002400BFC05B
:02003800BEC048
:02003C00C4C03E
:10004000CAC02FEF2DBF28E02EBF0FEF04B90AB9A9
:1000500002EA0093800009E1009381000EE400931E
:10006000870000E20093860003EA0093B00004E0FA
:100070000093B1000091700007600093700003EAE4
:1000800004BD03E005BD00916E00076000936E00A3
:10009000789405E00093890000E50093880005E06E
:1000A00000938B0008EC00938A0005E10093B300F5
:1000B00005E10093B40007E107BD07E108BD9DD04D
:1000C0009CD006E00093890004EE0093880007E0CE
:1000D00000938B0006E600938A000EE00093B300C5
:1000E0000EE00093B40007E107BD07E108BD85D02D
:1000F00084D005E00093890000E50093880005E0C6
:1001000000938B0008EC00938A000EE00093B3008C
:100110000EE00093B4001DE017BD10E118BD6DD0D6
:100120006CD003E0009389000AE70093880004E0A4
:1001300000938B0009E200938A0005E10093B3006D
:1001400005E10093B4001DE017BD10E118BD55D0C6
:1001500054D005E00093890000E50093880005E095
:1001600000938B0008EC00938A0005E10093B30034
:1001700005E10093B40007E107BD07E108BD3DD0EC
:100180003CD09FCF0F930FB70F932B980F910FBFBA
:100190000F9118950F930FB70F935B980F910FBFA7
:1001A0000F9118950F930FB70F932B9A5B9A0F919E
:1001B0000FBF0F9118950F930FB70F935E980F9184
:1001C0000FBF0F9118950F930FB70F935D980F9175
:1001D0000FBF0F9118950F930FB70F935D9A5E9A0B
:1001E0000F910FBF0F911895BF93AF93B9E0A1EC9A
:1001F0001197F1F7AF91BF9108950F930AE0F4DFE3
:100200000A95E9F70F9108950F9305E0F6DF0A9537
:06021000E9F70F910895CB
:00000001FF
